{
  "_format": "hh-sol-artifact-1",
  "contractName": "GolfBetTracker",
  "sourceName": "contracts/GolfBetTracker.sol",
  "abi": [
    {
      "inputs": [],
      "stateMutability": "nonpayable",
      "type": "constructor"
    },
    {
      "inputs": [
        {
          "internalType": "address",
          "name": "owner",
          "type": "address"
        }
      ],
      "name": "OwnableInvalidOwner",
      "type": "error"
    },
    {
      "inputs": [
        {
          "internalType": "address",
          "name": "account",
          "type": "address"
        }
      ],
      "name": "OwnableUnauthorizedAccount",
      "type": "error"
    },
    {
      "anonymous": false,
      "inputs": [
        {
          "indexed": true,
          "internalType": "bytes32",
          "name": "betId",
          "type": "bytes32"
        },
        {
          "indexed": false,
          "internalType": "string",
          "name": "betType",
          "type": "string"
        },
        {
          "indexed": false,
          "internalType": "uint256",
          "name": "amount",
          "type": "uint256"
        },
        {
          "indexed": false,
          "internalType": "string[]",
          "name": "players",
          "type": "string[]"
        },
        {
          "indexed": false,
          "internalType": "uint256",
          "name": "timestamp",
          "type": "uint256"
        }
      ],
      "name": "BetCreated",
      "type": "event"
    },
    {
      "anonymous": false,
      "inputs": [
        {
          "indexed": true,
          "internalType": "bytes32",
          "name": "betId",
          "type": "bytes32"
        },
        {
          "indexed": false,
          "internalType": "string[]",
          "name": "winners",
          "type": "string[]"
        }
      ],
      "name": "BetSettled",
      "type": "event"
    },
    {
      "anonymous": false,
      "inputs": [
        {
          "indexed": true,
          "internalType": "address",
          "name": "previousOwner",
          "type": "address"
        },
        {
          "indexed": true,
          "internalType": "address",
          "name": "newOwner",
          "type": "address"
        }
      ],
      "name": "OwnershipTransferred",
      "type": "event"
    },
    {
      "inputs": [],
      "name": "FREE_TIER_LIMIT",
      "outputs": [
        {
          "internalType": "uint256",
          "name": "",
          "type": "uint256"
        }
      ],
      "stateMutability": "view",
      "type": "function"
    },
    {
      "inputs": [
        {
          "internalType": "bytes32",
          "name": "",
          "type": "bytes32"
        }
      ],
      "name": "bets",
      "outputs": [
        {
          "internalType": "string",
          "name": "betType",
          "type": "string"
        },
        {
          "internalType": "uint256",
          "name": "amount",
          "type": "uint256"
        },
        {
          "internalType": "uint256",
          "name": "timestamp",
          "type": "uint256"
        },
        {
          "internalType": "bool",
          "name": "settled",
          "type": "bool"
        }
      ],
      "stateMutability": "view",
      "type": "function"
    },
    {
      "inputs": [
        {
          "internalType": "string",
          "name": "_betType",
          "type": "string"
        },
        {
          "internalType": "uint256",
          "name": "_amount",
          "type": "uint256"
        },
        {
          "internalType": "string[]",
          "name": "_players",
          "type": "string[]"
        }
      ],
      "name": "createBet",
      "outputs": [
        {
          "internalType": "bytes32",
          "name": "",
          "type": "bytes32"
        }
      ],
      "stateMutability": "nonpayable",
      "type": "function"
    },
    {
      "inputs": [
        {
          "internalType": "bytes32",
          "name": "_betId",
          "type": "bytes32"
        }
      ],
      "name": "getBetDetails",
      "outputs": [
        {
          "internalType": "string",
          "name": "betType",
          "type": "string"
        },
        {
          "internalType": "uint256",
          "name": "amount",
          "type": "uint256"
        },
        {
          "internalType": "string[]",
          "name": "players",
          "type": "string[]"
        },
        {
          "internalType": "uint256",
          "name": "timestamp",
          "type": "uint256"
        },
        {
          "internalType": "bool",
          "name": "settled",
          "type": "bool"
        }
      ],
      "stateMutability": "view",
      "type": "function"
    },
    {
      "inputs": [
        {
          "internalType": "address",
          "name": "_user",
          "type": "address"
        }
      ],
      "name": "isPremiumUser",
      "outputs": [
        {
          "internalType": "bool",
          "name": "",
          "type": "bool"
        }
      ],
      "stateMutability": "pure",
      "type": "function"
    },
    {
      "inputs": [],
      "name": "owner",
      "outputs": [
        {
          "internalType": "address",
          "name": "",
          "type": "address"
        }
      ],
      "stateMutability": "view",
      "type": "function"
    },
    {
      "inputs": [],
      "name": "renounceOwnership",
      "outputs": [],
      "stateMutability": "nonpayable",
      "type": "function"
    },
    {
      "inputs": [
        {
          "internalType": "bytes32",
          "name": "_betId",
          "type": "bytes32"
        },
        {
          "internalType": "string[]",
          "name": "_winners",
          "type": "string[]"
        }
      ],
      "name": "settleBet",
      "outputs": [],
      "stateMutability": "nonpayable",
      "type": "function"
    },
    {
      "inputs": [
        {
          "internalType": "address",
          "name": "newOwner",
          "type": "address"
        }
      ],
      "name": "transferOwnership",
      "outputs": [],
      "stateMutability": "nonpayable",
      "type": "function"
    },
    {
      "inputs": [
        {
          "internalType": "address",
          "name": "",
          "type": "address"
        }
      ],
      "name": "userBetCount",
      "outputs": [
        {
          "internalType": "uint256",
          "name": "",
          "type": "uint256"
        }
      ],
      "stateMutability": "view",
      "type": "function"
    }
  ],
  "bytecode": "0x608060405234801561001057600080fd5b50338061003757604051631e4fbdf760e01b81526000600482015260240160405180910390fd5b61004081610046565b50610096565b600080546001600160a01b038381166001600160a01b0319831681178455604051919092169283917f8be0079c531659141344cd1fd0a4f28419497f9722a3daafe3b4186f6b6457e09190a35050565b610f2a806100a56000396000f3fe608060405234801561001057600080fd5b506004361061009e5760003560e01c80639c11180d116100665780639c11180d14610125578063c902c3ae14610149578063efd53e071461016c578063f2fde38b14610174578063f408a23a1461018757600080fd5b80634978c38a146100a35780636f9dc5bc146100cc578063715018a6146100e157806376aa37c3146100e95780638da5cb5b1461010a575b600080fd5b6100b76100b1366004610959565b50600090565b60405190151581526020015b60405180910390f35b6100df6100da366004610adf565b6101a7565b005b6100df610314565b6100fc6100f7366004610b26565b610328565b6040519081526020016100c3565b6000546040516001600160a01b0390911681526020016100c3565b610138610133366004610b93565b61052a565b6040516100c3959493929190610c51565b61015c610157366004610b93565b61072c565b6040516100c39493929190610c96565b6100fc600381565b6100df610182366004610959565b6107e1565b6100fc610195366004610959565b60026020526000908152604090205481565b6000828152600160205260409020600581015460ff16156102055760405162461bcd60e51b815260206004820152601360248201527210995d08185b1c9958591e481cd95d1d1b1959606a1b60448201526064015b60405180910390fd5b600081600001805461021690610cc7565b90501161025a5760405162461bcd60e51b815260206004820152601260248201527110995d08191bd95cc81b9bdd08195e1a5cdd60721b60448201526064016101fc565b60005b82518110156102c55760018260030184838151811061027e5761027e610d01565b60200260200101516040516102939190610d17565b908152604051908190036020019020805491151560ff19909216919091179055806102bd81610d33565b91505061025d565b5060058101805460ff1916600117905560405183907f3158f10d269c339328e56bf0c1aa54721bfee41f2424c3253392663c05fb777d90610307908590610d5a565b60405180910390a2505050565b61031c61081f565b610326600061084c565b565b600060028251101561037c5760405162461bcd60e51b815260206004820152601a60248201527f4d696e696d756d203220706c617965727320726571756972656400000000000060448201526064016101fc565b60008451116103c15760405162461bcd60e51b815260206004820152601160248201527010995d081d1e5c19481c995c5d5a5c9959607a1b60448201526064016101fc565b336000908152600260205260409020546003116104205760405162461bcd60e51b815260206004820152601760248201527f467265652074696572206c696d6974207265616368656400000000000000000060448201526064016101fc565b600033428686866040516020016104379190610d5a565b60405160208183030381529060405280519060200120604051602001610461959493929190610d6d565b60408051601f198184030181529181528151602092830120600081815260019093529120909150806104938782610df7565b506001810185905583516104b0906002830190602087019061089c565b5042600482015560058101805460ff191690553360009081526002602052604081208054916104de83610d33565b9190505550817f217e1c341ee32d95d6ef58ada6d5211c0538fcfea91ba3afd1a3ad6900f48488878787426040516105199493929190610eb7565b60405180910390a250949350505050565b60008181526001602052604081208054606092918391839182918290829061055190610cc7565b9050116105955760405162461bcd60e51b815260206004820152601260248201527110995d08191bd95cc81b9bdd08195e1a5cdd60721b60448201526064016101fc565b8060000181600101548260020183600401548460050160009054906101000a900460ff168480546105c590610cc7565b80601f01602080910402602001604051908101604052809291908181526020018280546105f190610cc7565b801561063e5780601f106106135761010080835404028352916020019161063e565b820191906000526020600020905b81548152906001019060200180831161062157829003601f168201915b5050505050945082805480602002602001604051908101604052809291908181526020016000905b8282101561071257838290600052602060002001805461068590610cc7565b80601f01602080910402602001604051908101604052809291908181526020018280546106b190610cc7565b80156106fe5780601f106106d3576101008083540402835291602001916106fe565b820191906000526020600020905b8154815290600101906020018083116106e157829003601f168201915b505050505081526020019060010190610666565b505050509250955095509550955095505091939590929450565b60016020526000908152604090208054819061074790610cc7565b80601f016020809104026020016040519081016040528092919081815260200182805461077390610cc7565b80156107c05780601f10610795576101008083540402835291602001916107c0565b820191906000526020600020905b8154815290600101906020018083116107a357829003601f168201915b50505050600183015460048401546005909401549293909290915060ff1684565b6107e961081f565b6001600160a01b03811661081357604051631e4fbdf760e01b8152600060048201526024016101fc565b61081c8161084c565b50565b6000546001600160a01b031633146103265760405163118cdaa760e01b81523360048201526024016101fc565b600080546001600160a01b038381166001600160a01b0319831681178455604051919092169283917f8be0079c531659141344cd1fd0a4f28419497f9722a3daafe3b4186f6b6457e09190a35050565b8280548282559060005260206000209081019282156108e2579160200282015b828111156108e257825182906108d29082610df7565b50916020019190600101906108bc565b506108ee9291506108f2565b5090565b808211156108ee576000610906828261090f565b506001016108f2565b50805461091b90610cc7565b6000825580601f1061092b575050565b601f01602090049060005260206000209081019061081c91905b808211156108ee5760008155600101610945565b60006020828403121561096b57600080fd5b81356001600160a01b038116811461098257600080fd5b9392505050565b634e487b7160e01b600052604160045260246000fd5b604051601f8201601f1916810167ffffffffffffffff811182821017156109c8576109c8610989565b604052919050565b600082601f8301126109e157600080fd5b813567ffffffffffffffff8111156109fb576109fb610989565b610a0e601f8201601f191660200161099f565b818152846020838601011115610a2357600080fd5b816020850160208301376000918101602001919091529392505050565b600082601f830112610a5157600080fd5b8135602067ffffffffffffffff80831115610a6e57610a6e610989565b8260051b610a7d83820161099f565b9384528581018301938381019088861115610a9757600080fd5b84880192505b85831015610ad357823584811115610ab55760008081fd5b610ac38a87838c01016109d0565b8352509184019190840190610a9d565b98975050505050505050565b60008060408385031215610af257600080fd5b82359150602083013567ffffffffffffffff811115610b1057600080fd5b610b1c85828601610a40565b9150509250929050565b600080600060608486031215610b3b57600080fd5b833567ffffffffffffffff80821115610b5357600080fd5b610b5f878388016109d0565b9450602086013593506040860135915080821115610b7c57600080fd5b50610b8986828701610a40565b9150509250925092565b600060208284031215610ba557600080fd5b5035919050565b60005b83811015610bc7578181015183820152602001610baf565b50506000910152565b60008151808452610be8816020860160208601610bac565b601f01601f19169290920160200192915050565b600081518084526020808501808196508360051b8101915082860160005b85811015610c44578284038952610c32848351610bd0565b98850198935090840190600101610c1a565b5091979650505050505050565b60a081526000610c6460a0830188610bd0565b8660208401528281036040840152610c7c8187610bfc565b606084019590955250509015156080909101529392505050565b608081526000610ca96080830187610bd0565b60208301959095525060408101929092521515606090910152919050565b600181811c90821680610cdb57607f821691505b602082108103610cfb57634e487b7160e01b600052602260045260246000fd5b50919050565b634e487b7160e01b600052603260045260246000fd5b60008251610d29818460208701610bac565b9190910192915050565b600060018201610d5357634e487b7160e01b600052601160045260246000fd5b5060010190565b6020815260006109826020830184610bfc565b60018060a01b038616815284602082015260a060408201526000610d9460a0830186610bd0565b606083019490945250608001529392505050565b601f821115610df257600081815260208120601f850160051c81016020861015610dcf5750805b601f850160051c820191505b81811015610dee57828155600101610ddb565b5050505b505050565b815167ffffffffffffffff811115610e1157610e11610989565b610e2581610e1f8454610cc7565b84610da8565b602080601f831160018114610e5a5760008415610e425750858301515b600019600386901b1c1916600185901b178555610dee565b600085815260208120601f198616915b82811015610e8957888601518255948401946001909101908401610e6a565b5085821015610ea75787850151600019600388901b60f8161c191681555b5050505050600190811b01905550565b608081526000610eca6080830187610bd0565b8560208401528281036040840152610ee28186610bfc565b9150508260608301529594505050505056fea2646970667358221220a8a3813f25b4139fb0fde9c31f6d25a4336f0a74d38a7684d425605e5f663f9464736f6c63430008140033",
  "linkReferences": {},
  "deployedLinkReferences": {}
}